{
  "_format": "hh-sol-artifact-1",
  "contractName": "StreamCreator",
  "sourceName": "contracts/StreamCreator.sol",
  "abi": [
    {
      "inputs": [],
      "name": "LOCKUP_DYNAMIC",
      "outputs": [
        {
          "internalType": "contract ISablierV2LockupDynamic",
          "name": "",
          "type": "address"
        }
      ],
      "stateMutability": "view",
      "type": "function"
    },
    {
      "inputs": [],
      "name": "WETH",
      "outputs": [
        {
          "internalType": "contract IERC20",
          "name": "",
          "type": "address"
        }
      ],
      "stateMutability": "view",
      "type": "function"
    },
    {
      "inputs": [
        {
          "internalType": "uint128",
          "name": "amount_per_month",
          "type": "uint128"
        },
        {
          "internalType": "uint128",
          "name": "count_of_months",
          "type": "uint128"
        },
        {
          "internalType": "address",
          "name": "recipient_addr",
          "type": "address"
        }
      ],
      "name": "createStream",
      "outputs": [
        {
          "internalType": "uint256",
          "name": "streamId",
          "type": "uint256"
        }
      ],
      "stateMutability": "nonpayable",
      "type": "function"
    }
  ],
  "bytecode": "0x6080604052348015600f57600080fd5b50610d4d8061001f6000396000f3fe608060405234801561001057600080fd5b50600436106100415760003560e01c806372add81814610046578063a78044e114610064578063ad5c464814610094575b600080fd5b61004e6100b2565b60405161005b91906106f2565b60405180910390f35b61007e60048036038101906100799190610798565b6100ca565b60405161008b9190610804565b60405180910390f35b61009c610530565b6040516100a99190610840565b60405180910390f35b73c9940ad8f43aad8e8f33a4d5dbbf0a8f7ff4429a81565b60008083856100d9919061088a565b6fffffffffffffffffffffffffffffffff16905073fa6a407c4c49ea1d46569c1a4bcf71c3437be54c73ffffffffffffffffffffffffffffffffffffffff166323b872dd3330846040518463ffffffff1660e01b815260040161013e939291906108d6565b6020604051808303816000875af115801561015d573d6000803e3d6000fd5b505050506040513d601f19601f820116820180604052508101906101819190610945565b5073fa6a407c4c49ea1d46569c1a4bcf71c3437be54c73ffffffffffffffffffffffffffffffffffffffff1663095ea7b373c9940ad8f43aad8e8f33a4d5dbbf0a8f7ff4429a836040518363ffffffff1660e01b81526004016101e5929190610972565b6020604051808303816000875af1158015610204573d6000803e3d6000fd5b505050506040513d601f19601f820116820180604052508101906102289190610945565b5061023161055c565b33816000019073ffffffffffffffffffffffffffffffffffffffff16908173ffffffffffffffffffffffffffffffffffffffff168152505083816060019073ffffffffffffffffffffffffffffffffffffffff16908173ffffffffffffffffffffffffffffffffffffffff16815250508181608001906fffffffffffffffffffffffffffffffff1690816fffffffffffffffffffffffffffffffff168152505073fa6a407c4c49ea1d46569c1a4bcf71c3437be54c8160a0019073ffffffffffffffffffffffffffffffffffffffff16908173ffffffffffffffffffffffffffffffffffffffff1681525050600181602001901515908115158152505060008160400190151590811515815250506040518060400160405280600073ffffffffffffffffffffffffffffffffffffffff1681526020016103716000610548565b8152508160c00181905250846fffffffffffffffffffffffffffffffff1667ffffffffffffffff8111156103a8576103a761099b565b5b6040519080825280602002602001820160405280156103e157816020015b6103ce6105ff565b8152602001906001900390816103c65790505b508160e00181905250600062278d00905060006078905060005b876fffffffffffffffffffffffffffffffff168110156104925760405180606001604052808a6fffffffffffffffffffffffffffffffff168152602001610449670de0b6b3a7640000610552565b67ffffffffffffffff1681526020018364ffffffffff168152508460e00151828151811061047a576104796109ca565b5b602002602001018190525080806001019150506103fb565b5073c9940ad8f43aad8e8f33a4d5dbbf0a8f7ff4429a73ffffffffffffffffffffffffffffffffffffffff166316844456846040518263ffffffff1660e01b81526004016104e09190610c9c565b6020604051808303816000875af11580156104ff573d6000803e3d6000fd5b505050506040513d601f19601f820116820180604052508101906105239190610cea565b9450505050509392505050565b73fa6a407c4c49ea1d46569c1a4bcf71c3437be54c81565b6000819050919050565b6000819050919050565b604051806101000160405280600073ffffffffffffffffffffffffffffffffffffffff168152602001600015158152602001600015158152602001600073ffffffffffffffffffffffffffffffffffffffff16815260200160006fffffffffffffffffffffffffffffffff168152602001600073ffffffffffffffffffffffffffffffffffffffff1681526020016105f2610643565b8152602001606081525090565b604051806060016040528060006fffffffffffffffffffffffffffffffff168152602001600067ffffffffffffffff168152602001600064ffffffffff1681525090565b6040518060400160405280600073ffffffffffffffffffffffffffffffffffffffff168152602001600081525090565b600073ffffffffffffffffffffffffffffffffffffffff82169050919050565b6000819050919050565b60006106b86106b36106ae84610673565b610693565b610673565b9050919050565b60006106ca8261069d565b9050919050565b60006106dc826106bf565b9050919050565b6106ec816106d1565b82525050565b600060208201905061070760008301846106e3565b92915050565b600080fd5b60006fffffffffffffffffffffffffffffffff82169050919050565b61073781610712565b811461074257600080fd5b50565b6000813590506107548161072e565b92915050565b600061076582610673565b9050919050565b6107758161075a565b811461078057600080fd5b50565b6000813590506107928161076c565b92915050565b6000806000606084860312156107b1576107b061070d565b5b60006107bf86828701610745565b93505060206107d086828701610745565b92505060406107e186828701610783565b9150509250925092565b6000819050919050565b6107fe816107eb565b82525050565b600060208201905061081960008301846107f5565b92915050565b600061082a826106bf565b9050919050565b61083a8161081f565b82525050565b60006020820190506108556000830184610831565b92915050565b7f4e487b7100000000000000000000000000000000000000000000000000000000600052601160045260246000fd5b600061089582610712565b91506108a083610712565b92508282026108ae81610712565b91508082146108c0576108bf61085b565b5b5092915050565b6108d08161075a565b82525050565b60006060820190506108eb60008301866108c7565b6108f860208301856108c7565b61090560408301846107f5565b949350505050565b60008115159050919050565b6109228161090d565b811461092d57600080fd5b50565b60008151905061093f81610919565b92915050565b60006020828403121561095b5761095a61070d565b5b600061096984828501610930565b91505092915050565b600060408201905061098760008301856108c7565b61099460208301846107f5565b9392505050565b7f4e487b7100000000000000000000000000000000000000000000000000000000600052604160045260246000fd5b7f4e487b7100000000000000000000000000000000000000000000000000000000600052603260045260246000fd5b610a028161075a565b82525050565b610a118161090d565b82525050565b610a2081610712565b82525050565b610a2f8161081f565b82525050565b6000610a50610a4b610a46846107eb565b610693565b6107eb565b9050919050565b610a6081610a35565b82525050565b604082016000820151610a7c60008501826109f9565b506020820151610a8f6020850182610a57565b50505050565b600081519050919050565b600082825260208201905092915050565b6000819050602082019050919050565b600067ffffffffffffffff82169050919050565b6000610af0610aeb610ae684610ac1565b610693565b610ac1565b9050919050565b610b0081610ad5565b82525050565b600064ffffffffff82169050919050565b610b2081610b06565b82525050565b606082016000820151610b3c6000850182610a17565b506020820151610b4f6020850182610af7565b506040820151610b626040850182610b17565b50505050565b6000610b748383610b26565b60608301905092915050565b6000602082019050919050565b6000610b9882610a95565b610ba28185610aa0565b9350610bad83610ab1565b8060005b83811015610bde578151610bc58882610b68565b9750610bd083610b80565b925050600181019050610bb1565b5085935050505092915050565b600061012083016000830151610c0460008601826109f9565b506020830151610c176020860182610a08565b506040830151610c2a6040860182610a08565b506060830151610c3d60608601826109f9565b506080830151610c506080860182610a17565b5060a0830151610c6360a0860182610a26565b5060c0830151610c7660c0860182610a66565b5060e0830151848203610100860152610c8f8282610b8d565b9150508091505092915050565b60006020820190508181036000830152610cb68184610beb565b905092915050565b610cc7816107eb565b8114610cd257600080fd5b50565b600081519050610ce481610cbe565b92915050565b600060208284031215610d0057610cff61070d565b5b6000610d0e84828501610cd5565b9150509291505056fea264697066735822122055e6abb1794506c4bd22e572dc7f158f6c88e0396ca52983e0e9a56cbbd4177c64736f6c634300081a0033",
  "linkReferences": {},
  "deployedLinkReferences": {}
}