{
  "_format": "hh-sol-artifact-1",
  "contractName": "StreamManager",
  "sourceName": "contracts/StreamManager.sol",
  "abi": [
    {
      "inputs": [],
      "stateMutability": "nonpayable",
      "type": "constructor"
    },
    {
      "inputs": [
        {
          "internalType": "uint256",
          "name": "streamId",
          "type": "uint256"
        }
      ],
      "name": "cancel",
      "outputs": [
        {
          "internalType": "uint256",
          "name": "",
          "type": "uint256"
        }
      ],
      "stateMutability": "nonpayable",
      "type": "function"
    },
    {
      "inputs": [],
      "name": "sablier",
      "outputs": [
        {
          "internalType": "contract ISablierV2LockupDynamic",
          "name": "",
          "type": "address"
        }
      ],
      "stateMutability": "view",
      "type": "function"
    },
    {
      "inputs": [
        {
          "internalType": "uint256",
          "name": "streamId",
          "type": "uint256"
        },
        {
          "internalType": "address",
          "name": "recipient",
          "type": "address"
        }
      ],
      "name": "withdrawMax",
      "outputs": [],
      "stateMutability": "nonpayable",
      "type": "function"
    }
  ],
  "bytecode": "0x60a0604052348015600f57600080fd5b5073c9940ad8f43aad8e8f33a4d5dbbf0a8f7ff4429a73ffffffffffffffffffffffffffffffffffffffff1660808173ffffffffffffffffffffffffffffffffffffffff16815250506080516105376100876000396000818160b501528181610151015281816101f7015261021b01526105376000f3fe608060405234801561001057600080fd5b50600436106100415760003560e01c806340e58ee514610046578063482879aa14610076578063ea5ead1914610094575b600080fd5b610060600480360381019061005b91906102e5565b6100b0565b60405161006d9190610321565b60405180910390f35b61007e6101f5565b60405161008b91906103bb565b60405180910390f35b6100ae60048036038101906100a99190610414565b610219565b005b6000807f000000000000000000000000000000000000000000000000000000000000000073ffffffffffffffffffffffffffffffffffffffff16631400ecec846040518263ffffffff1660e01b815260040161010c9190610321565b602060405180830381865afa158015610129573d6000803e3d6000fd5b505050506040513d601f19601f8201168201806040525081019061014d919061049c565b90507f000000000000000000000000000000000000000000000000000000000000000073ffffffffffffffffffffffffffffffffffffffff166340e58ee5846040518263ffffffff1660e01b81526004016101a89190610321565b600060405180830381600087803b1580156101c257600080fd5b505af11580156101d6573d6000803e3d6000fd5b50505050806fffffffffffffffffffffffffffffffff16915050919050565b7f000000000000000000000000000000000000000000000000000000000000000081565b7f000000000000000000000000000000000000000000000000000000000000000073ffffffffffffffffffffffffffffffffffffffff1663ea5ead1983836040518363ffffffff1660e01b81526004016102749291906104d8565b600060405180830381600087803b15801561028e57600080fd5b505af11580156102a2573d6000803e3d6000fd5b505050505050565b600080fd5b6000819050919050565b6102c2816102af565b81146102cd57600080fd5b50565b6000813590506102df816102b9565b92915050565b6000602082840312156102fb576102fa6102aa565b5b6000610309848285016102d0565b91505092915050565b61031b816102af565b82525050565b60006020820190506103366000830184610312565b92915050565b600073ffffffffffffffffffffffffffffffffffffffff82169050919050565b6000819050919050565b600061038161037c6103778461033c565b61035c565b61033c565b9050919050565b600061039382610366565b9050919050565b60006103a582610388565b9050919050565b6103b58161039a565b82525050565b60006020820190506103d060008301846103ac565b92915050565b60006103e18261033c565b9050919050565b6103f1816103d6565b81146103fc57600080fd5b50565b60008135905061040e816103e8565b92915050565b6000806040838503121561042b5761042a6102aa565b5b6000610439858286016102d0565b925050602061044a858286016103ff565b9150509250929050565b60006fffffffffffffffffffffffffffffffff82169050919050565b61047981610454565b811461048457600080fd5b50565b60008151905061049681610470565b92915050565b6000602082840312156104b2576104b16102aa565b5b60006104c084828501610487565b91505092915050565b6104d2816103d6565b82525050565b60006040820190506104ed6000830185610312565b6104fa60208301846104c9565b939250505056fea264697066735822122075d6640ea8937ceae87077f33dab38b794f5adb658ef8b89e74fcf5d2a9e080264736f6c634300081a0033",
  "linkReferences": {},
  "deployedLinkReferences": {}
}